{
  "contractName": "DrugSupplyChain",
  "abi": [
    {
      "anonymous": false,
      "inputs": [
        {
          "indexed": false,
          "internalType": "uint256",
          "name": "batchNumber",
          "type": "uint256"
        },
        {
          "indexed": false,
          "internalType": "string",
          "name": "name",
          "type": "string"
        },
        {
          "indexed": false,
          "internalType": "string",
          "name": "manufacturer",
          "type": "string"
        }
      ],
      "name": "DrugAdded",
      "type": "event"
    },
    {
      "anonymous": false,
      "inputs": [
        {
          "indexed": false,
          "internalType": "uint256",
          "name": "batchNumber",
          "type": "uint256"
        },
        {
          "indexed": false,
          "internalType": "address",
          "name": "from",
          "type": "address"
        },
        {
          "indexed": false,
          "internalType": "address",
          "name": "to",
          "type": "address"
        }
      ],
      "name": "OwnershipTransferred",
      "type": "event"
    },
    {
      "inputs": [
        {
          "internalType": "uint256",
          "name": "",
          "type": "uint256"
        }
      ],
      "name": "drugs",
      "outputs": [
        {
          "internalType": "string",
          "name": "name",
          "type": "string"
        },
        {
          "internalType": "string",
          "name": "manufacturer",
          "type": "string"
        },
        {
          "internalType": "uint256",
          "name": "batchNumber",
          "type": "uint256"
        },
        {
          "internalType": "uint256",
          "name": "timestamp",
          "type": "uint256"
        },
        {
          "internalType": "address",
          "name": "currentOwner",
          "type": "address"
        }
      ],
      "stateMutability": "view",
      "type": "function",
      "constant": true
    },
    {
      "inputs": [
        {
          "internalType": "address",
          "name": "",
          "type": "address"
        },
        {
          "internalType": "uint256",
          "name": "",
          "type": "uint256"
        }
      ],
      "name": "userDrugs",
      "outputs": [
        {
          "internalType": "uint256",
          "name": "",
          "type": "uint256"
        }
      ],
      "stateMutability": "view",
      "type": "function",
      "constant": true
    },
    {
      "inputs": [
        {
          "internalType": "uint256",
          "name": "_batchNumber",
          "type": "uint256"
        },
        {
          "internalType": "string",
          "name": "_name",
          "type": "string"
        },
        {
          "internalType": "string",
          "name": "_manufacturer",
          "type": "string"
        }
      ],
      "name": "addDrug",
      "outputs": [],
      "stateMutability": "nonpayable",
      "type": "function"
    },
    {
      "inputs": [
        {
          "internalType": "uint256",
          "name": "_batchNumber",
          "type": "uint256"
        },
        {
          "internalType": "address",
          "name": "_newOwner",
          "type": "address"
        }
      ],
      "name": "transferOwnership",
      "outputs": [],
      "stateMutability": "nonpayable",
      "type": "function"
    },
    {
      "inputs": [
        {
          "internalType": "uint256",
          "name": "_batchNumber",
          "type": "uint256"
        }
      ],
      "name": "getDrugDetails",
      "outputs": [
        {
          "internalType": "string",
          "name": "",
          "type": "string"
        },
        {
          "internalType": "string",
          "name": "",
          "type": "string"
        },
        {
          "internalType": "uint256",
          "name": "",
          "type": "uint256"
        },
        {
          "internalType": "uint256",
          "name": "",
          "type": "uint256"
        },
        {
          "internalType": "address",
          "name": "",
          "type": "address"
        }
      ],
      "stateMutability": "view",
      "type": "function",
      "constant": true
    }
  ],
  "bytecode": "0x608060405234801561001057600080fd5b50610e86806100206000396000f3fe608060405234801561001057600080fd5b50600436106100575760003560e01c806329507f731461005c57806360ee0b6d1461007857806389dab619146100ac578063e7a3a15f146100c8578063fca5e61e146100f8575b600080fd5b61007660048036038101906100719190610996565b61012c565b005b610092600480360381019061008d919061096d565b61029d565b6040516100a3959493929190610b4e565b60405180910390f35b6100c660048036038101906100c191906109d2565b610480565b005b6100e260048036038101906100dd9190610931565b610665565b6040516100ef9190610bef565b60405180910390f35b610112600480360381019061010d919061096d565b610696565b604051610123959493929190610b4e565b60405180910390f35b3373ffffffffffffffffffffffffffffffffffffffff1660008084815260200190815260200160002060040160009054906101000a900473ffffffffffffffffffffffffffffffffffffffff1673ffffffffffffffffffffffffffffffffffffffff16146101cf576040517f08c379a00000000000000000000000000000000000000000000000000000000081526004016101c690610bcf565b60405180910390fd5b600080600084815260200190815260200160002060040160009054906101000a900473ffffffffffffffffffffffffffffffffffffffff1690508160008085815260200190815260200160002060040160006101000a81548173ffffffffffffffffffffffffffffffffffffffff021916908373ffffffffffffffffffffffffffffffffffffffff1602179055507f16b85f49bf01212961345d3016c9a531894accf62eb7680f2045d79185cc0ec083828460405161029093929190610c0a565b60405180910390a1505050565b6060806000806000806000808881526020019081526020016000206040518060a00160405290816000820180546102d390610d81565b80601f01602080910402602001604051908101604052809291908181526020018280546102ff90610d81565b801561034c5780601f106103215761010080835404028352916020019161034c565b820191906000526020600020905b81548152906001019060200180831161032f57829003601f168201915b5050505050815260200160018201805461036590610d81565b80601f016020809104026020016040519081016040528092919081815260200182805461039190610d81565b80156103de5780601f106103b3576101008083540402835291602001916103de565b820191906000526020600020905b8154815290600101906020018083116103c157829003601f168201915b5050505050815260200160028201548152602001600382015481526020016004820160009054906101000a900473ffffffffffffffffffffffffffffffffffffffff1673ffffffffffffffffffffffffffffffffffffffff1673ffffffffffffffffffffffffffffffffffffffff1681525050905080600001518160200151826040015183606001518460800151955095509550955095505091939590929450565b600080600085815260200190815260200160002060020154146104d8576040517f08c379a00000000000000000000000000000000000000000000000000000000081526004016104cf90610baf565b60405180910390fd5b6040518060a001604052808381526020018281526020018481526020014281526020013373ffffffffffffffffffffffffffffffffffffffff1681525060008085815260200190815260200160002060008201518160000190805190602001906105439291906107fc565b5060208201518160010190805190602001906105609291906107fc565b50604082015181600201556060820151816003015560808201518160040160006101000a81548173ffffffffffffffffffffffffffffffffffffffff021916908373ffffffffffffffffffffffffffffffffffffffff160217905550905050600160003373ffffffffffffffffffffffffffffffffffffffff1673ffffffffffffffffffffffffffffffffffffffff1681526020019081526020016000208390806001815401808255809150506001900390600052602060002001600090919091909150557fd2aafdffef0172e3b2dd1bd95e0aa14f98e79459caae45f538f215efb2d366f383838360405161065893929190610c41565b60405180910390a1505050565b6001602052816000526040600020818154811061068157600080fd5b90600052602060002001600091509150505481565b60006020528060005260406000206000915090508060000180546106b990610d81565b80601f01602080910402602001604051908101604052809291908181526020018280546106e590610d81565b80156107325780601f1061070757610100808354040283529160200191610732565b820191906000526020600020905b81548152906001019060200180831161071557829003601f168201915b50505050509080600101805461074790610d81565b80601f016020809104026020016040519081016040528092919081815260200182805461077390610d81565b80156107c05780601f10610795576101008083540402835291602001916107c0565b820191906000526020600020905b8154815290600101906020018083116107a357829003601f168201915b5050505050908060020154908060030154908060040160009054906101000a900473ffffffffffffffffffffffffffffffffffffffff16905085565b82805461080890610d81565b90600052602060002090601f01602090048101928261082a5760008555610871565b82601f1061084357805160ff1916838001178555610871565b82800160010185558215610871579182015b82811115610870578251825591602001919060010190610855565b5b50905061087e9190610882565b5090565b5b8082111561089b576000816000905550600101610883565b5090565b60006108b26108ad84610cb7565b610c86565b9050828152602081018484840111156108ca57600080fd5b6108d5848285610d3f565b509392505050565b6000813590506108ec81610e22565b92915050565b600082601f83011261090357600080fd5b813561091384826020860161089f565b91505092915050565b60008135905061092b81610e39565b92915050565b6000806040838503121561094457600080fd5b6000610952858286016108dd565b92505060206109638582860161091c565b9150509250929050565b60006020828403121561097f57600080fd5b600061098d8482850161091c565b91505092915050565b600080604083850312156109a957600080fd5b60006109b78582860161091c565b92505060206109c8858286016108dd565b9150509250929050565b6000806000606084860312156109e757600080fd5b60006109f58682870161091c565b935050602084013567ffffffffffffffff811115610a1257600080fd5b610a1e868287016108f2565b925050604084013567ffffffffffffffff811115610a3b57600080fd5b610a47868287016108f2565b9150509250925092565b610a5a81610d03565b82525050565b6000610a6b82610ce7565b610a758185610cf2565b9350610a85818560208601610d4e565b610a8e81610e11565b840191505092915050565b6000610aa6601a83610cf2565b91507f4472756720626174636820616c7265616479206578697374732e0000000000006000830152602082019050919050565b6000610ae6602e83610cf2565b91507f4f6e6c79207468652063757272656e74206f776e65722063616e207472616e7360008301527f666572206f776e6572736869702e0000000000000000000000000000000000006020830152604082019050919050565b610b4881610d35565b82525050565b600060a0820190508181036000830152610b688188610a60565b90508181036020830152610b7c8187610a60565b9050610b8b6040830186610b3f565b610b986060830185610b3f565b610ba56080830184610a51565b9695505050505050565b60006020820190508181036000830152610bc881610a99565b9050919050565b60006020820190508181036000830152610be881610ad9565b9050919050565b6000602082019050610c046000830184610b3f565b92915050565b6000606082019050610c1f6000830186610b3f565b610c2c6020830185610a51565b610c396040830184610a51565b949350505050565b6000606082019050610c566000830186610b3f565b8181036020830152610c688185610a60565b90508181036040830152610c7c8184610a60565b9050949350505050565b6000604051905081810181811067ffffffffffffffff82111715610cad57610cac610de2565b5b8060405250919050565b600067ffffffffffffffff821115610cd257610cd1610de2565b5b601f19601f8301169050602081019050919050565b600081519050919050565b600082825260208201905092915050565b6000610d0e82610d15565b9050919050565b600073ffffffffffffffffffffffffffffffffffffffff82169050919050565b6000819050919050565b82818337600083830152505050565b60005b83811015610d6c578082015181840152602081019050610d51565b83811115610d7b576000848401525b50505050565b60006002820490506001821680610d9957607f821691505b60208210811415610dad57610dac610db3565b5b50919050565b7f4e487b7100000000000000000000000000000000000000000000000000000000600052602260045260246000fd5b7f4e487b7100000000000000000000000000000000000000000000000000000000600052604160045260246000fd5b6000601f19601f8301169050919050565b610e2b81610d03565b8114610e3657600080fd5b50565b610e4281610d35565b8114610e4d57600080fd5b5056fea26469706673582212206c2cfeedd74931c8dcd137e936f28b06c02f2f77c7d64bf64d62bcc9a1f66d9364736f6c63430008000033",
  "immutableReferences": {},
  "source": "// SPDX-License-Identifier: MIT\npragma solidity ^0.8.0;\n\ncontract DrugSupplyChain {\n\n    struct Drug {\n        string name;\n        string manufacturer;\n        uint256 batchNumber;\n        uint256 timestamp;\n        address currentOwner;\n    }\n\n    mapping(uint256 => Drug) public drugs; // Store drugs by batch number\n    mapping(address => uint256[]) public userDrugs; // Track drugs owned by an address\n\n    event DrugAdded(uint256 batchNumber, string name, string manufacturer);\n    event OwnershipTransferred(uint256 batchNumber, address from, address to);\n\n    function addDrug(uint256 _batchNumber, string memory _name, string memory _manufacturer) public {\n        require(drugs[_batchNumber].batchNumber == 0, \"Drug batch already exists.\");\n        \n        drugs[_batchNumber] = Drug(_name, _manufacturer, _batchNumber, block.timestamp, msg.sender);\n        userDrugs[msg.sender].push(_batchNumber);\n\n        emit DrugAdded(_batchNumber, _name, _manufacturer);\n    }\n\n    function transferOwnership(uint256 _batchNumber, address _newOwner) public {\n        require(drugs[_batchNumber].currentOwner == msg.sender, \"Only the current owner can transfer ownership.\");\n        \n        address oldOwner = drugs[_batchNumber].currentOwner;\n        drugs[_batchNumber].currentOwner = _newOwner;\n        emit OwnershipTransferred(_batchNumber, oldOwner, _newOwner);\n    }\n\n    function getDrugDetails(uint256 _batchNumber) public view returns (string memory, string memory, uint256, uint256, address) {\n        Drug memory drug = drugs[_batchNumber];\n        return (drug.name, drug.manufacturer, drug.batchNumber, drug.timestamp, drug.currentOwner);\n    }\n}\n",
  "sourcePath": "C:\\Documents\\Hackathon-IARE\\contracts\\DrugSupplyChain.sol",
  "compiler": {
    "name": "solc",
    "version": "0.8.0+commit.c7dfd78e.Emscripten.clang"
  },
  "schemaVersion": "3.4.16",
  "updatedAt": "2025-01-31T04:01:33.480Z",
  "networkType": "ethereum",
  "devdoc": {
    "kind": "dev",
    "methods": {},
    "version": 1
  },
  "userdoc": {
    "kind": "user",
    "methods": {},
    "version": 1
  }
}